{
    "_format": "hh-sol-artifact-1",
    "contractName": "DegenRWA",
    "sourceName": "contracts/DegenRWA.sol",
    "abi": [
        {
            "inputs": [],
            "stateMutability": "payable",
            "type": "constructor"
        },
        {
            "anonymous": false,
            "inputs": [
                {
                    "indexed": true,
                    "internalType": "address",
                    "name": "owner",
                    "type": "address"
                },
                {
                    "indexed": true,
                    "internalType": "address",
                    "name": "approved",
                    "type": "address"
                },
                {
                    "indexed": true,
                    "internalType": "uint256",
                    "name": "tokenId",
                    "type": "uint256"
                }
            ],
            "name": "Approval",
            "type": "event"
        },
        {
            "anonymous": false,
            "inputs": [
                {
                    "indexed": true,
                    "internalType": "address",
                    "name": "owner",
                    "type": "address"
                },
                {
                    "indexed": true,
                    "internalType": "address",
                    "name": "operator",
                    "type": "address"
                },
                {
                    "indexed": false,
                    "internalType": "bool",
                    "name": "approved",
                    "type": "bool"
                }
            ],
            "name": "ApprovalForAll",
            "type": "event"
        },
        {
            "anonymous": false,
            "inputs": [
                {
                    "indexed": true,
                    "internalType": "address",
                    "name": "owner",
                    "type": "address"
                },
                {
                    "indexed": true,
                    "internalType": "uint256",
                    "name": "tokenId",
                    "type": "uint256"
                }
            ],
            "name": "Burn",
            "type": "event"
        },
        {
            "anonymous": false,
            "inputs": [
                {
                    "indexed": true,
                    "internalType": "address",
                    "name": "previousOwner",
                    "type": "address"
                },
                {
                    "indexed": true,
                    "internalType": "address",
                    "name": "newOwner",
                    "type": "address"
                }
            ],
            "name": "OwnershipTransferred",
            "type": "event"
        },
        {
            "anonymous": false,
            "inputs": [
                {
                    "indexed": true,
                    "internalType": "address",
                    "name": "from",
                    "type": "address"
                },
                {
                    "indexed": true,
                    "internalType": "address",
                    "name": "to",
                    "type": "address"
                },
                {
                    "indexed": true,
                    "internalType": "uint256",
                    "name": "tokenId",
                    "type": "uint256"
                }
            ],
            "name": "Transfer",
            "type": "event"
        },
        {
            "inputs": [
                {
                    "internalType": "address",
                    "name": "to",
                    "type": "address"
                },
                {
                    "internalType": "uint256",
                    "name": "tokenId",
                    "type": "uint256"
                }
            ],
            "name": "approve",
            "outputs": [],
            "stateMutability": "nonpayable",
            "type": "function"
        },
        {
            "inputs": [
                {
                    "internalType": "address",
                    "name": "owner",
                    "type": "address"
                }
            ],
            "name": "balanceOf",
            "outputs": [
                {
                    "internalType": "uint256",
                    "name": "",
                    "type": "uint256"
                }
            ],
            "stateMutability": "view",
            "type": "function"
        },
        {
            "inputs": [
                {
                    "internalType": "uint256",
                    "name": "_tokenId",
                    "type": "uint256"
                }
            ],
            "name": "burn",
            "outputs": [],
            "stateMutability": "nonpayable",
            "type": "function"
        },
        {
            "inputs": [
                {
                    "internalType": "uint256",
                    "name": "tokenId",
                    "type": "uint256"
                }
            ],
            "name": "getApproved",
            "outputs": [
                {
                    "internalType": "address",
                    "name": "",
                    "type": "address"
                }
            ],
            "stateMutability": "view",
            "type": "function"
        },
        {
            "inputs": [
                {
                    "internalType": "address",
                    "name": "owner",
                    "type": "address"
                },
                {
                    "internalType": "address",
                    "name": "operator",
                    "type": "address"
                }
            ],
            "name": "isApprovedForAll",
            "outputs": [
                {
                    "internalType": "bool",
                    "name": "",
                    "type": "bool"
                }
            ],
            "stateMutability": "view",
            "type": "function"
        },
        {
            "inputs": [],
            "name": "isPublicMintEnabled",
            "outputs": [
                {
                    "internalType": "bool",
                    "name": "",
                    "type": "bool"
                }
            ],
            "stateMutability": "view",
            "type": "function"
        },
        {
            "inputs": [],
            "name": "maxPerWallet",
            "outputs": [
                {
                    "internalType": "uint256",
                    "name": "",
                    "type": "uint256"
                }
            ],
            "stateMutability": "view",
            "type": "function"
        },
        {
            "inputs": [],
            "name": "maxSupply",
            "outputs": [
                {
                    "internalType": "uint256",
                    "name": "",
                    "type": "uint256"
                }
            ],
            "stateMutability": "view",
            "type": "function"
        },
        {
            "inputs": [
                {
                    "internalType": "uint256",
                    "name": "_quantity",
                    "type": "uint256"
                }
            ],
            "name": "mint",
            "outputs": [],
            "stateMutability": "payable",
            "type": "function"
        },
        {
            "inputs": [],
            "name": "mintPrice",
            "outputs": [
                {
                    "internalType": "uint256",
                    "name": "",
                    "type": "uint256"
                }
            ],
            "stateMutability": "view",
            "type": "function"
        },
        {
            "inputs": [],
            "name": "name",
            "outputs": [
                {
                    "internalType": "string",
                    "name": "",
                    "type": "string"
                }
            ],
            "stateMutability": "view",
            "type": "function"
        },
        {
            "inputs": [],
            "name": "owner",
            "outputs": [
                {
                    "internalType": "address",
                    "name": "",
                    "type": "address"
                }
            ],
            "stateMutability": "view",
            "type": "function"
        },
        {
            "inputs": [
                {
                    "internalType": "uint256",
                    "name": "tokenId",
                    "type": "uint256"
                }
            ],
            "name": "ownerOf",
            "outputs": [
                {
                    "internalType": "address",
                    "name": "",
                    "type": "address"
                }
            ],
            "stateMutability": "view",
            "type": "function"
        },
        {
            "inputs": [],
            "name": "renounceOwnership",
            "outputs": [],
            "stateMutability": "nonpayable",
            "type": "function"
        },
        {
            "inputs": [
                {
                    "internalType": "address",
                    "name": "from",
                    "type": "address"
                },
                {
                    "internalType": "address",
                    "name": "to",
                    "type": "address"
                },
                {
                    "internalType": "uint256",
                    "name": "tokenId",
                    "type": "uint256"
                }
            ],
            "name": "safeTransferFrom",
            "outputs": [],
            "stateMutability": "nonpayable",
            "type": "function"
        },
        {
            "inputs": [
                {
                    "internalType": "address",
                    "name": "from",
                    "type": "address"
                },
                {
                    "internalType": "address",
                    "name": "to",
                    "type": "address"
                },
                {
                    "internalType": "uint256",
                    "name": "tokenId",
                    "type": "uint256"
                },
                {
                    "internalType": "bytes",
                    "name": "_data",
                    "type": "bytes"
                }
            ],
            "name": "safeTransferFrom",
            "outputs": [],
            "stateMutability": "nonpayable",
            "type": "function"
        },
        {
            "inputs": [
                {
                    "internalType": "address",
                    "name": "operator",
                    "type": "address"
                },
                {
                    "internalType": "bool",
                    "name": "approved",
                    "type": "bool"
                }
            ],
            "name": "setApprovalForAll",
            "outputs": [],
            "stateMutability": "nonpayable",
            "type": "function"
        },
        {
            "inputs": [
                {
                    "internalType": "string",
                    "name": "_baseTokenUri",
                    "type": "string"
                }
            ],
            "name": "setBaseTokenUri",
            "outputs": [],
            "stateMutability": "nonpayable",
            "type": "function"
        },
        {
            "inputs": [
                {
                    "internalType": "bool",
                    "name": "_isPublicMintEnabled",
                    "type": "bool"
                }
            ],
            "name": "setIsPublicMintEnabled",
            "outputs": [],
            "stateMutability": "nonpayable",
            "type": "function"
        },
        {
            "inputs": [
                {
                    "internalType": "bytes4",
                    "name": "interfaceId",
                    "type": "bytes4"
                }
            ],
            "name": "supportsInterface",
            "outputs": [
                {
                    "internalType": "bool",
                    "name": "",
                    "type": "bool"
                }
            ],
            "stateMutability": "view",
            "type": "function"
        },
        {
            "inputs": [],
            "name": "symbol",
            "outputs": [
                {
                    "internalType": "string",
                    "name": "",
                    "type": "string"
                }
            ],
            "stateMutability": "view",
            "type": "function"
        },
        {
            "inputs": [
                {
                    "internalType": "uint256",
                    "name": "_tokenId",
                    "type": "uint256"
                }
            ],
            "name": "tokenURI",
            "outputs": [
                {
                    "internalType": "string",
                    "name": "",
                    "type": "string"
                }
            ],
            "stateMutability": "view",
            "type": "function"
        },
        {
            "inputs": [],
            "name": "totalSupply",
            "outputs": [
                {
                    "internalType": "uint256",
                    "name": "",
                    "type": "uint256"
                }
            ],
            "stateMutability": "view",
            "type": "function"
        },
        {
            "inputs": [
                {
                    "internalType": "address",
                    "name": "from",
                    "type": "address"
                },
                {
                    "internalType": "address",
                    "name": "to",
                    "type": "address"
                },
                {
                    "internalType": "uint256",
                    "name": "tokenId",
                    "type": "uint256"
                }
            ],
            "name": "transferFrom",
            "outputs": [],
            "stateMutability": "nonpayable",
            "type": "function"
        },
        {
            "inputs": [
                {
                    "internalType": "address",
                    "name": "newOwner",
                    "type": "address"
                }
            ],
            "name": "transferOwnership",
            "outputs": [],
            "stateMutability": "nonpayable",
            "type": "function"
        },
        {
            "inputs": [
                {
                    "internalType": "address",
                    "name": "",
                    "type": "address"
                }
            ],
            "name": "walletMints",
            "outputs": [
                {
                    "internalType": "uint256",
                    "name": "",
                    "type": "uint256"
                }
            ],
            "stateMutability": "view",
            "type": "function"
        }
    ],
    "bytecode": "0x60806040526040518060400160405280600881526020017f446567656e5257410000000000000000000000000000000000000000000000008152506040518060400160405280600481526020017f44525741000000000000000000000000000000000000000000000000000000008152508160009081620000819190620003f8565b508060019081620000939190620003f8565b5050506000620000a86200017660201b60201c565b905080600660006101000a81548173ffffffffffffffffffffffffffffffffffffffff021916908373ffffffffffffffffffffffffffffffffffffffff1602179055508073ffffffffffffffffffffffffffffffffffffffff16600073ffffffffffffffffffffffffffffffffffffffff167f8be0079c531659141344cd1fd0a4f28419497f9722a3daafe3b4186f6b6457e060405160405180910390a350670de0b6b3a76400006007819055506000600881905550620f42406009819055506003600a81905550620004df565b600033905090565b600081519050919050565b7f4e487b7100000000000000000000000000000000000000000000000000000000600052604160045260246000fd5b7f4e487b7100000000000000000000000000000000000000000000000000000000600052602260045260246000fd5b600060028204905060018216806200020057607f821691505b602082108103620002165762000215620001b8565b5b50919050565b60008190508160005260206000209050919050565b60006020601f8301049050919050565b600082821b905092915050565b600060088302620002807fffffffffffffffffffffffffffffffffffffffffffffffffffffffffffffffff8262000241565b6200028c868362000241565b95508019841693508086168417925050509392505050565b6000819050919050565b6000819050919050565b6000620002d9620002d3620002cd84620002a4565b620002ae565b620002a4565b9050919050565b6000819050919050565b620002f583620002b8565b6200030d6200030482620002e0565b8484546200024e565b825550505050565b600090565b6200032462000315565b62000331818484620002ea565b505050565b5b8181101562000359576200034d6000826200031a565b60018101905062000337565b5050565b601f821115620003a85762000372816200021c565b6200037d8462000231565b810160208510156200038d578190505b620003a56200039c8562000231565b83018262000336565b50505b505050565b600082821c905092915050565b6000620003cd60001984600802620003ad565b1980831691505092915050565b6000620003e88383620003ba565b9150826002028217905092915050565b62000403826200017e565b67ffffffffffffffff8111156200041f576200041e62000189565b5b6200042b8254620001e7565b620004388282856200035d565b600060209050601f8311600181146200047057600084156200045b578287015190505b620004678582620003da565b865550620004d7565b601f19841662000480866200021c565b60005b82811015620004aa5784890151825560018201915060208501945060208101905062000483565b86831015620004ca5784890151620004c6601f891682620003ba565b8355505b6001600288020188555050505b505050505050565b613a4a80620004ef6000396000f3fe6080604052600436106101815760003560e01c806370a08231116100d1578063a22cb4651161008a578063d5abeb0111610064578063d5abeb011461055f578063e985e9c51461058a578063f0293fd3146105c7578063f2fde38b1461060457610181565b8063a22cb465146104d0578063b88d4fde146104f9578063c87b56dd1461052257610181565b806370a08231146103e1578063715018a61461041e5780638da5cb5b1461043557806395652cfa1461046057806395d89b4114610489578063a0712d68146104b457610181565b80632373ac221161013e57806342966c681161011857806342966c6814610325578063453c23101461034e5780636352211e146103795780636817c76c146103b657610181565b80632373ac22146102aa57806323b872dd146102d357806342842e0e146102fc57610181565b80630116bc2d1461018657806301ffc9a7146101b157806306fdde03146101ee578063081812fc14610219578063095ea7b31461025657806318160ddd1461027f575b600080fd5b34801561019257600080fd5b5061019b61062d565b6040516101a891906121c3565b60405180910390f35b3480156101bd57600080fd5b506101d860048036038101906101d3919061224a565b610640565b6040516101e591906121c3565b60405180910390f35b3480156101fa57600080fd5b50610203610722565b6040516102109190612307565b60405180910390f35b34801561022557600080fd5b50610240600480360381019061023b919061235f565b6107b4565b60405161024d91906123cd565b60405180910390f35b34801561026257600080fd5b5061027d60048036038101906102789190612414565b610839565b005b34801561028b57600080fd5b50610294610950565b6040516102a19190612463565b60405180910390f35b3480156102b657600080fd5b506102d160048036038101906102cc91906124aa565b610956565b005b3480156102df57600080fd5b506102fa60048036038101906102f591906124d7565b6109ef565b005b34801561030857600080fd5b50610323600480360381019061031e91906124d7565b610a4f565b005b34801561033157600080fd5b5061034c6004803603810190610347919061235f565b610a6f565b005b34801561035a57600080fd5b50610363610b95565b6040516103709190612463565b60405180910390f35b34801561038557600080fd5b506103a0600480360381019061039b919061235f565b610b9b565b6040516103ad91906123cd565b60405180910390f35b3480156103c257600080fd5b506103cb610c4c565b6040516103d89190612463565b60405180910390f35b3480156103ed57600080fd5b506104086004803603810190610403919061252a565b610c52565b6040516104159190612463565b60405180910390f35b34801561042a57600080fd5b50610433610d09565b005b34801561044157600080fd5b5061044a610e46565b60405161045791906123cd565b60405180910390f35b34801561046c57600080fd5b50610487600480360381019061048291906125bc565b610e70565b005b34801561049557600080fd5b5061049e610f02565b6040516104ab9190612307565b60405180910390f35b6104ce60048036038101906104c9919061235f565b610f94565b005b3480156104dc57600080fd5b506104f760048036038101906104f29190612609565b61116b565b005b34801561050557600080fd5b50610520600480360381019061051b9190612779565b6112eb565b005b34801561052e57600080fd5b506105496004803603810190610544919061235f565b61134d565b6040516105569190612307565b60405180910390f35b34801561056b57600080fd5b506105746113c9565b6040516105819190612463565b60405180910390f35b34801561059657600080fd5b506105b160048036038101906105ac91906127fc565b6113cf565b6040516105be91906121c3565b60405180910390f35b3480156105d357600080fd5b506105ee60048036038101906105e9919061252a565b611463565b6040516105fb9190612463565b60405180910390f35b34801561061057600080fd5b5061062b6004803603810190610626919061252a565b61147b565b005b600b60009054906101000a900460ff1681565b60007f80ac58cd000000000000000000000000000000000000000000000000000000007bffffffffffffffffffffffffffffffffffffffffffffffffffffffff1916827bffffffffffffffffffffffffffffffffffffffffffffffffffffffff1916148061070b57507f5b5e139f000000000000000000000000000000000000000000000000000000007bffffffffffffffffffffffffffffffffffffffffffffffffffffffff1916827bffffffffffffffffffffffffffffffffffffffffffffffffffffffff1916145b8061071b575061071a82611626565b5b9050919050565b6060600080546107319061286b565b80601f016020809104026020016040519081016040528092919081815260200182805461075d9061286b565b80156107aa5780601f1061077f576101008083540402835291602001916107aa565b820191906000526020600020905b81548152906001019060200180831161078d57829003601f168201915b5050505050905090565b60006107bf82611690565b6107fe576040517f08c379a00000000000000000000000000000000000000000000000000000000081526004016107f59061290e565b60405180910390fd5b6004600083815260200190815260200160002060009054906101000a900473ffffffffffffffffffffffffffffffffffffffff169050919050565b600061084482610b9b565b90508073ffffffffffffffffffffffffffffffffffffffff168373ffffffffffffffffffffffffffffffffffffffff16036108b4576040517f08c379a00000000000000000000000000000000000000000000000000000000081526004016108ab906129a0565b60405180910390fd5b8073ffffffffffffffffffffffffffffffffffffffff166108d36116fc565b73ffffffffffffffffffffffffffffffffffffffff1614806109025750610901816108fc6116fc565b6113cf565b5b610941576040517f08c379a000000000000000000000000000000000000000000000000000000000815260040161093890612a32565b60405180910390fd5b61094b8383611704565b505050565b60085481565b61095e6116fc565b73ffffffffffffffffffffffffffffffffffffffff1661097c610e46565b73ffffffffffffffffffffffffffffffffffffffff16146109d2576040517f08c379a00000000000000000000000000000000000000000000000000000000081526004016109c990612a9e565b60405180910390fd5b80600b60006101000a81548160ff02191690831515021790555050565b610a006109fa6116fc565b826117bd565b610a3f576040517f08c379a0000000000000000000000000000000000000000000000000000000008152600401610a3690612b30565b60405180910390fd5b610a4a83838361189b565b505050565b610a6a838383604051806020016040528060008152506112eb565b505050565b610a7881611690565b610ab7576040517f08c379a0000000000000000000000000000000000000000000000000000000008152600401610aae90612b9c565b60405180910390fd5b3373ffffffffffffffffffffffffffffffffffffffff16610ad782610b9b565b73ffffffffffffffffffffffffffffffffffffffff1614610b2d576040517f08c379a0000000000000000000000000000000000000000000000000000000008152600401610b2490612c2e565b60405180910390fd5b610b3681611af6565b60086000815480929190610b4990612c7d565b9190505550803373ffffffffffffffffffffffffffffffffffffffff167fcc16f5dbb4873280815c1ee09dbd06736cffcc184412cf7a71a0fdb75d397ca560405160405180910390a350565b600a5481565b6000806002600084815260200190815260200160002060009054906101000a900473ffffffffffffffffffffffffffffffffffffffff169050600073ffffffffffffffffffffffffffffffffffffffff168173ffffffffffffffffffffffffffffffffffffffff1603610c43576040517f08c379a0000000000000000000000000000000000000000000000000000000008152600401610c3a90612d18565b60405180910390fd5b80915050919050565b60075481565b60008073ffffffffffffffffffffffffffffffffffffffff168273ffffffffffffffffffffffffffffffffffffffff1603610cc2576040517f08c379a0000000000000000000000000000000000000000000000000000000008152600401610cb990612daa565b60405180910390fd5b600360008373ffffffffffffffffffffffffffffffffffffffff1673ffffffffffffffffffffffffffffffffffffffff168152602001908152602001600020549050919050565b610d116116fc565b73ffffffffffffffffffffffffffffffffffffffff16610d2f610e46565b73ffffffffffffffffffffffffffffffffffffffff1614610d85576040517f08c379a0000000000000000000000000000000000000000000000000000000008152600401610d7c90612a9e565b60405180910390fd5b600073ffffffffffffffffffffffffffffffffffffffff16600660009054906101000a900473ffffffffffffffffffffffffffffffffffffffff1673ffffffffffffffffffffffffffffffffffffffff167f8be0079c531659141344cd1fd0a4f28419497f9722a3daafe3b4186f6b6457e060405160405180910390a36000600660006101000a81548173ffffffffffffffffffffffffffffffffffffffff021916908373ffffffffffffffffffffffffffffffffffffffff160217905550565b6000600660009054906101000a900473ffffffffffffffffffffffffffffffffffffffff16905090565b610e786116fc565b73ffffffffffffffffffffffffffffffffffffffff16610e96610e46565b73ffffffffffffffffffffffffffffffffffffffff1614610eec576040517f08c379a0000000000000000000000000000000000000000000000000000000008152600401610ee390612a9e565b60405180910390fd5b8181600c9182610efd929190612f81565b505050565b606060018054610f119061286b565b80601f0160208091040260200160405190810160405280929190818152602001828054610f3d9061286b565b8015610f8a5780601f10610f5f57610100808354040283529160200191610f8a565b820191906000526020600020905b815481529060010190602001808311610f6d57829003601f168201915b5050505050905090565b600b60009054906101000a900460ff16610fe3576040517f08c379a0000000000000000000000000000000000000000000000000000000008152600401610fda9061309d565b60405180910390fd5b60075481610ff191906130bd565b3414611032576040517f08c379a000000000000000000000000000000000000000000000000000000000815260040161102990613171565b60405180910390fd5b600954816008546110439190613191565b1115611084576040517f08c379a000000000000000000000000000000000000000000000000000000000815260040161107b90613211565b60405180910390fd5b600a5481600d60003373ffffffffffffffffffffffffffffffffffffffff1673ffffffffffffffffffffffffffffffffffffffff168152602001908152602001600020546110d29190613191565b1115611113576040517f08c379a000000000000000000000000000000000000000000000000000000000815260040161110a9061327d565b60405180910390fd5b60005b81811015611167576000600160085461112f9190613191565b9050600860008154809291906111449061329d565b91905055506111533382611c07565b50808061115f9061329d565b915050611116565b5050565b6111736116fc565b73ffffffffffffffffffffffffffffffffffffffff168273ffffffffffffffffffffffffffffffffffffffff16036111e0576040517f08c379a00000000000000000000000000000000000000000000000000000000081526004016111d790613331565b60405180910390fd5b80600560006111ed6116fc565b73ffffffffffffffffffffffffffffffffffffffff1673ffffffffffffffffffffffffffffffffffffffff16815260200190815260200160002060008473ffffffffffffffffffffffffffffffffffffffff1673ffffffffffffffffffffffffffffffffffffffff16815260200190815260200160002060006101000a81548160ff0219169083151502179055508173ffffffffffffffffffffffffffffffffffffffff1661129a6116fc565b73ffffffffffffffffffffffffffffffffffffffff167f17307eab39ab6107e8899845ad3d59bd9653f200f220920489ca2b5937696c31836040516112df91906121c3565b60405180910390a35050565b6112fc6112f66116fc565b836117bd565b61133b576040517f08c379a000000000000000000000000000000000000000000000000000000000815260040161133290612b30565b60405180910390fd5b61134784848484611c25565b50505050565b606061135882611690565b611397576040517f08c379a000000000000000000000000000000000000000000000000000000000815260040161138e90612b9c565b60405180910390fd5b600c6113a283611c81565b6040516020016113b392919061345c565b6040516020818303038152906040529050919050565b60095481565b6000600560008473ffffffffffffffffffffffffffffffffffffffff1673ffffffffffffffffffffffffffffffffffffffff16815260200190815260200160002060008373ffffffffffffffffffffffffffffffffffffffff1673ffffffffffffffffffffffffffffffffffffffff16815260200190815260200160002060009054906101000a900460ff16905092915050565b600d6020528060005260406000206000915090505481565b6114836116fc565b73ffffffffffffffffffffffffffffffffffffffff166114a1610e46565b73ffffffffffffffffffffffffffffffffffffffff16146114f7576040517f08c379a00000000000000000000000000000000000000000000000000000000081526004016114ee90612a9e565b60405180910390fd5b600073ffffffffffffffffffffffffffffffffffffffff168173ffffffffffffffffffffffffffffffffffffffff1603611566576040517f08c379a000000000000000000000000000000000000000000000000000000000815260040161155d906134fd565b60405180910390fd5b8073ffffffffffffffffffffffffffffffffffffffff16600660009054906101000a900473ffffffffffffffffffffffffffffffffffffffff1673ffffffffffffffffffffffffffffffffffffffff167f8be0079c531659141344cd1fd0a4f28419497f9722a3daafe3b4186f6b6457e060405160405180910390a380600660006101000a81548173ffffffffffffffffffffffffffffffffffffffff021916908373ffffffffffffffffffffffffffffffffffffffff16021790555050565b60007f01ffc9a7000000000000000000000000000000000000000000000000000000007bffffffffffffffffffffffffffffffffffffffffffffffffffffffff1916827bffffffffffffffffffffffffffffffffffffffffffffffffffffffff1916149050919050565b60008073ffffffffffffffffffffffffffffffffffffffff166002600084815260200190815260200160002060009054906101000a900473ffffffffffffffffffffffffffffffffffffffff1673ffffffffffffffffffffffffffffffffffffffff1614159050919050565b600033905090565b816004600083815260200190815260200160002060006101000a81548173ffffffffffffffffffffffffffffffffffffffff021916908373ffffffffffffffffffffffffffffffffffffffff160217905550808273ffffffffffffffffffffffffffffffffffffffff1661177783610b9b565b73ffffffffffffffffffffffffffffffffffffffff167f8c5be1e5ebec7d5bd14f71427d1e84f3dd0314c0f7b2291e5b200ac8c7c3b92560405160405180910390a45050565b60006117c882611690565b611807576040517f08c379a00000000000000000000000000000000000000000000000000000000081526004016117fe9061358f565b60405180910390fd5b600061181283610b9b565b90508073ffffffffffffffffffffffffffffffffffffffff168473ffffffffffffffffffffffffffffffffffffffff16148061188157508373ffffffffffffffffffffffffffffffffffffffff16611869846107b4565b73ffffffffffffffffffffffffffffffffffffffff16145b80611892575061189181856113cf565b5b91505092915050565b8273ffffffffffffffffffffffffffffffffffffffff166118bb82610b9b565b73ffffffffffffffffffffffffffffffffffffffff1614611911576040517f08c379a000000000000000000000000000000000000000000000000000000000815260040161190890613621565b60405180910390fd5b600073ffffffffffffffffffffffffffffffffffffffff168273ffffffffffffffffffffffffffffffffffffffff1603611980576040517f08c379a0000000000000000000000000000000000000000000000000000000008152600401611977906136b3565b60405180910390fd5b61198b838383611de1565b611996600082611704565b6001600360008573ffffffffffffffffffffffffffffffffffffffff1673ffffffffffffffffffffffffffffffffffffffff16815260200190815260200160002060008282546119e691906136d3565b925050819055506001600360008473ffffffffffffffffffffffffffffffffffffffff1673ffffffffffffffffffffffffffffffffffffffff1681526020019081526020016000206000828254611a3d9190613191565b92505081905550816002600083815260200190815260200160002060006101000a81548173ffffffffffffffffffffffffffffffffffffffff021916908373ffffffffffffffffffffffffffffffffffffffff160217905550808273ffffffffffffffffffffffffffffffffffffffff168473ffffffffffffffffffffffffffffffffffffffff167fddf252ad1be2c89b69c2b068fc378daa952ba7f163c4a11628f55a4df523b3ef60405160405180910390a4505050565b6000611b0182610b9b565b9050611b0f81600084611de1565b611b1a600083611704565b6001600360008373ffffffffffffffffffffffffffffffffffffffff1673ffffffffffffffffffffffffffffffffffffffff1681526020019081526020016000206000828254611b6a91906136d3565b925050819055506002600083815260200190815260200160002060006101000a81549073ffffffffffffffffffffffffffffffffffffffff021916905581600073ffffffffffffffffffffffffffffffffffffffff168273ffffffffffffffffffffffffffffffffffffffff167fddf252ad1be2c89b69c2b068fc378daa952ba7f163c4a11628f55a4df523b3ef60405160405180910390a45050565b611c21828260405180602001604052806000815250611de6565b5050565b611c3084848461189b565b611c3c84848484611e41565b611c7b576040517f08c379a0000000000000000000000000000000000000000000000000000000008152600401611c7290613779565b60405180910390fd5b50505050565b606060008203611cc8576040518060400160405280600181526020017f30000000000000000000000000000000000000000000000000000000000000008152509050611ddc565b600082905060005b60008214611cfa578080611ce39061329d565b915050600a82611cf391906137c8565b9150611cd0565b60008167ffffffffffffffff811115611d1657611d1561264e565b5b6040519080825280601f01601f191660200182016040528015611d485781602001600182028036833780820191505090505b5090505b60008514611dd557600182611d6191906136d3565b9150600a85611d7091906137f9565b6030611d7c9190613191565b60f81b818381518110611d9257611d9161382a565b5b60200101907effffffffffffffffffffffffffffffffffffffffffffffffffffffffffffff1916908160001a905350600a85611dce91906137c8565b9450611d4c565b8093505050505b919050565b505050565b611df08383611fc8565b611dfd6000848484611e41565b611e3c576040517f08c379a0000000000000000000000000000000000000000000000000000000008152600401611e3390613779565b60405180910390fd5b505050565b6000611e628473ffffffffffffffffffffffffffffffffffffffff16612195565b15611fbb578373ffffffffffffffffffffffffffffffffffffffff1663150b7a02611e8b6116fc565b8786866040518563ffffffff1660e01b8152600401611ead94939291906138ae565b6020604051808303816000875af1925050508015611ee957506040513d601f19601f82011682018060405250810190611ee6919061390f565b60015b611f6b573d8060008114611f19576040519150601f19603f3d011682016040523d82523d6000602084013e611f1e565b606091505b506000815103611f63576040517f08c379a0000000000000000000000000000000000000000000000000000000008152600401611f5a90613779565b60405180910390fd5b805181602001fd5b63150b7a0260e01b7bffffffffffffffffffffffffffffffffffffffffffffffffffffffff1916817bffffffffffffffffffffffffffffffffffffffffffffffffffffffff191614915050611fc0565b600190505b949350505050565b600073ffffffffffffffffffffffffffffffffffffffff168273ffffffffffffffffffffffffffffffffffffffff1603612037576040517f08c379a000000000000000000000000000000000000000000000000000000000815260040161202e90613988565b60405180910390fd5b61204081611690565b15612080576040517f08c379a0000000000000000000000000000000000000000000000000000000008152600401612077906139f4565b60405180910390fd5b61208c60008383611de1565b6001600360008473ffffffffffffffffffffffffffffffffffffffff1673ffffffffffffffffffffffffffffffffffffffff16815260200190815260200160002060008282546120dc9190613191565b92505081905550816002600083815260200190815260200160002060006101000a81548173ffffffffffffffffffffffffffffffffffffffff021916908373ffffffffffffffffffffffffffffffffffffffff160217905550808273ffffffffffffffffffffffffffffffffffffffff16600073ffffffffffffffffffffffffffffffffffffffff167fddf252ad1be2c89b69c2b068fc378daa952ba7f163c4a11628f55a4df523b3ef60405160405180910390a45050565b600080823b905060008111915050919050565b60008115159050919050565b6121bd816121a8565b82525050565b60006020820190506121d860008301846121b4565b92915050565b6000604051905090565b600080fd5b600080fd5b60007fffffffff0000000000000000000000000000000000000000000000000000000082169050919050565b612227816121f2565b811461223257600080fd5b50565b6000813590506122448161221e565b92915050565b6000602082840312156122605761225f6121e8565b5b600061226e84828501612235565b91505092915050565b600081519050919050565b600082825260208201905092915050565b60005b838110156122b1578082015181840152602081019050612296565b60008484015250505050565b6000601f19601f8301169050919050565b60006122d982612277565b6122e38185612282565b93506122f3818560208601612293565b6122fc816122bd565b840191505092915050565b6000602082019050818103600083015261232181846122ce565b905092915050565b6000819050919050565b61233c81612329565b811461234757600080fd5b50565b60008135905061235981612333565b92915050565b600060208284031215612375576123746121e8565b5b60006123838482850161234a565b91505092915050565b600073ffffffffffffffffffffffffffffffffffffffff82169050919050565b60006123b78261238c565b9050919050565b6123c7816123ac565b82525050565b60006020820190506123e260008301846123be565b92915050565b6123f1816123ac565b81146123fc57600080fd5b50565b60008135905061240e816123e8565b92915050565b6000806040838503121561242b5761242a6121e8565b5b6000612439858286016123ff565b925050602061244a8582860161234a565b9150509250929050565b61245d81612329565b82525050565b60006020820190506124786000830184612454565b92915050565b612487816121a8565b811461249257600080fd5b50565b6000813590506124a48161247e565b92915050565b6000602082840312156124c0576124bf6121e8565b5b60006124ce84828501612495565b91505092915050565b6000806000606084860312156124f0576124ef6121e8565b5b60006124fe868287016123ff565b935050602061250f868287016123ff565b92505060406125208682870161234a565b9150509250925092565b6000602082840312156125405761253f6121e8565b5b600061254e848285016123ff565b91505092915050565b600080fd5b600080fd5b600080fd5b60008083601f84011261257c5761257b612557565b5b8235905067ffffffffffffffff8111156125995761259861255c565b5b6020830191508360018202830111156125b5576125b4612561565b5b9250929050565b600080602083850312156125d3576125d26121e8565b5b600083013567ffffffffffffffff8111156125f1576125f06121ed565b5b6125fd85828601612566565b92509250509250929050565b600080604083850312156126205761261f6121e8565b5b600061262e858286016123ff565b925050602061263f85828601612495565b9150509250929050565b600080fd5b7f4e487b7100000000000000000000000000000000000000000000000000000000600052604160045260246000fd5b612686826122bd565b810181811067ffffffffffffffff821117156126a5576126a461264e565b5b80604052505050565b60006126b86121de565b90506126c4828261267d565b919050565b600067ffffffffffffffff8211156126e4576126e361264e565b5b6126ed826122bd565b9050602081019050919050565b82818337600083830152505050565b600061271c612717846126c9565b6126ae565b90508281526020810184848401111561273857612737612649565b5b6127438482856126fa565b509392505050565b600082601f8301126127605761275f612557565b5b8135612770848260208601612709565b91505092915050565b60008060008060808587031215612793576127926121e8565b5b60006127a1878288016123ff565b94505060206127b2878288016123ff565b93505060406127c38782880161234a565b925050606085013567ffffffffffffffff8111156127e4576127e36121ed565b5b6127f08782880161274b565b91505092959194509250565b60008060408385031215612813576128126121e8565b5b6000612821858286016123ff565b9250506020612832858286016123ff565b9150509250929050565b7f4e487b7100000000000000000000000000000000000000000000000000000000600052602260045260246000fd5b6000600282049050600182168061288357607f821691505b6020821081036128965761289561283c565b5b50919050565b7f4552433732313a20617070726f76656420717565727920666f72206e6f6e657860008201527f697374656e7420746f6b656e0000000000000000000000000000000000000000602082015250565b60006128f8602c83612282565b91506129038261289c565b604082019050919050565b60006020820190508181036000830152612927816128eb565b9050919050565b7f4552433732313a20617070726f76616c20746f2063757272656e74206f776e6560008201527f7200000000000000000000000000000000000000000000000000000000000000602082015250565b600061298a602183612282565b91506129958261292e565b604082019050919050565b600060208201905081810360008301526129b98161297d565b9050919050565b7f4552433732313a20617070726f76652063616c6c6572206973206e6f74206f7760008201527f6e6572206e6f7220617070726f76656420666f7220616c6c0000000000000000602082015250565b6000612a1c603883612282565b9150612a27826129c0565b604082019050919050565b60006020820190508181036000830152612a4b81612a0f565b9050919050565b7f4f776e61626c653a2063616c6c6572206973206e6f7420746865206f776e6572600082015250565b6000612a88602083612282565b9150612a9382612a52565b602082019050919050565b60006020820190508181036000830152612ab781612a7b565b9050919050565b7f4552433732313a207472616e736665722063616c6c6572206973206e6f74206f60008201527f776e6572206e6f7220617070726f766564000000000000000000000000000000602082015250565b6000612b1a603183612282565b9150612b2582612abe565b604082019050919050565b60006020820190508181036000830152612b4981612b0d565b9050919050565b7f546f6b656e20646f6573206e6f74206578697374000000000000000000000000600082015250565b6000612b86601483612282565b9150612b9182612b50565b602082019050919050565b60006020820190508181036000830152612bb581612b79565b9050919050565b7f596f7520617265206e6f7420746865206f776e6572206f66207468697320746f60008201527f6b656e0000000000000000000000000000000000000000000000000000000000602082015250565b6000612c18602383612282565b9150612c2382612bbc565b604082019050919050565b60006020820190508181036000830152612c4781612c0b565b9050919050565b7f4e487b7100000000000000000000000000000000000000000000000000000000600052601160045260246000fd5b6000612c8882612329565b915060008203612c9b57612c9a612c4e565b5b600182039050919050565b7f4552433732313a206f776e657220717565727920666f72206e6f6e657869737460008201527f656e7420746f6b656e0000000000000000000000000000000000000000000000602082015250565b6000612d02602983612282565b9150612d0d82612ca6565b604082019050919050565b60006020820190508181036000830152612d3181612cf5565b9050919050565b7f4552433732313a2062616c616e636520717565727920666f7220746865207a6560008201527f726f206164647265737300000000000000000000000000000000000000000000602082015250565b6000612d94602a83612282565b9150612d9f82612d38565b604082019050919050565b60006020820190508181036000830152612dc381612d87565b9050919050565b600082905092915050565b60008190508160005260206000209050919050565b60006020601f8301049050919050565b600082821b905092915050565b600060088302612e377fffffffffffffffffffffffffffffffffffffffffffffffffffffffffffffffff82612dfa565b612e418683612dfa565b95508019841693508086168417925050509392505050565b6000819050919050565b6000612e7e612e79612e7484612329565b612e59565b612329565b9050919050565b6000819050919050565b612e9883612e63565b612eac612ea482612e85565b848454612e07565b825550505050565b600090565b612ec1612eb4565b612ecc818484612e8f565b505050565b5b81811015612ef057612ee5600082612eb9565b600181019050612ed2565b5050565b601f821115612f3557612f0681612dd5565b612f0f84612dea565b81016020851015612f1e578190505b612f32612f2a85612dea565b830182612ed1565b50505b505050565b600082821c905092915050565b6000612f5860001984600802612f3a565b1980831691505092915050565b6000612f718383612f47565b9150826002028217905092915050565b612f8b8383612dca565b67ffffffffffffffff811115612fa457612fa361264e565b5b612fae825461286b565b612fb9828285612ef4565b6000601f831160018114612fe85760008415612fd6578287013590505b612fe08582612f65565b865550613048565b601f198416612ff686612dd5565b60005b8281101561301e57848901358255600182019150602085019450602081019050612ff9565b8683101561303b5784890135613037601f891682612f47565b8355505b6001600288020188555050505b50505050505050565b7f4d696e74696e672064697361626c656400000000000000000000000000000000600082015250565b6000613087601083612282565b915061309282613051565b602082019050919050565b600060208201905081810360008301526130b68161307a565b9050919050565b60006130c882612329565b91506130d383612329565b92508282026130e181612329565b915082820484148315176130f8576130f7612c4e565b5b5092915050565b7f52424e54206973206e6f7420657175616c20746f20746865206d696e7420707260008201527f6963650000000000000000000000000000000000000000000000000000000000602082015250565b600061315b602383612282565b9150613166826130ff565b604082019050919050565b6000602082019050818103600083015261318a8161314e565b9050919050565b600061319c82612329565b91506131a783612329565b92508282019050808211156131bf576131be612c4e565b5b92915050565b7f45786365656473206d617820737570706c790000000000000000000000000000600082015250565b60006131fb601283612282565b9150613206826131c5565b602082019050919050565b6000602082019050818103600083015261322a816131ee565b9050919050565b7f45786365656473207065722077616c6c6574206c696d69740000000000000000600082015250565b6000613267601883612282565b915061327282613231565b602082019050919050565b600060208201905081810360008301526132968161325a565b9050919050565b60006132a882612329565b91507fffffffffffffffffffffffffffffffffffffffffffffffffffffffffffffffff82036132da576132d9612c4e565b5b600182019050919050565b7f4552433732313a20617070726f766520746f2063616c6c657200000000000000600082015250565b600061331b601983612282565b9150613326826132e5565b602082019050919050565b6000602082019050818103600083015261334a8161330e565b9050919050565b600081905092915050565b600081546133698161286b565b6133738186613351565b9450600182166000811461338e57600181146133a3576133d6565b60ff19831686528115158202860193506133d6565b6133ac85612dd5565b60005b838110156133ce578154818901526001820191506020810190506133af565b838801955050505b50505092915050565b60006133ea82612277565b6133f48185613351565b9350613404818560208601612293565b80840191505092915050565b7f2e6a736f6e000000000000000000000000000000000000000000000000000000600082015250565b6000613446600583613351565b915061345182613410565b600582019050919050565b6000613468828561335c565b915061347482846133df565b915061347f82613439565b91508190509392505050565b7f4f776e61626c653a206e6577206f776e657220697320746865207a65726f206160008201527f6464726573730000000000000000000000000000000000000000000000000000602082015250565b60006134e7602683612282565b91506134f28261348b565b604082019050919050565b60006020820190508181036000830152613516816134da565b9050919050565b7f4552433732313a206f70657261746f7220717565727920666f72206e6f6e657860008201527f697374656e7420746f6b656e0000000000000000000000000000000000000000602082015250565b6000613579602c83612282565b91506135848261351d565b604082019050919050565b600060208201905081810360008301526135a88161356c565b9050919050565b7f4552433732313a207472616e73666572206f6620746f6b656e2074686174206960008201527f73206e6f74206f776e0000000000000000000000000000000000000000000000602082015250565b600061360b602983612282565b9150613616826135af565b604082019050919050565b6000602082019050818103600083015261363a816135fe565b9050919050565b7f4552433732313a207472616e7366657220746f20746865207a65726f2061646460008201527f7265737300000000000000000000000000000000000000000000000000000000602082015250565b600061369d602483612282565b91506136a882613641565b604082019050919050565b600060208201905081810360008301526136cc81613690565b9050919050565b60006136de82612329565b91506136e983612329565b925082820390508181111561370157613700612c4e565b5b92915050565b7f4552433732313a207472616e7366657220746f206e6f6e20455243373231526560008201527f63656976657220696d706c656d656e7465720000000000000000000000000000602082015250565b6000613763603283612282565b915061376e82613707565b604082019050919050565b6000602082019050818103600083015261379281613756565b9050919050565b7f4e487b7100000000000000000000000000000000000000000000000000000000600052601260045260246000fd5b60006137d382612329565b91506137de83612329565b9250826137ee576137ed613799565b5b828204905092915050565b600061380482612329565b915061380f83612329565b92508261381f5761381e613799565b5b828206905092915050565b7f4e487b7100000000000000000000000000000000000000000000000000000000600052603260045260246000fd5b600081519050919050565b600082825260208201905092915050565b600061388082613859565b61388a8185613864565b935061389a818560208601612293565b6138a3816122bd565b840191505092915050565b60006080820190506138c360008301876123be565b6138d060208301866123be565b6138dd6040830185612454565b81810360608301526138ef8184613875565b905095945050505050565b6000815190506139098161221e565b92915050565b600060208284031215613925576139246121e8565b5b6000613933848285016138fa565b91505092915050565b7f4552433732313a206d696e7420746f20746865207a65726f2061646472657373600082015250565b6000613972602083612282565b915061397d8261393c565b602082019050919050565b600060208201905081810360008301526139a181613965565b9050919050565b7f4552433732313a20746f6b656e20616c7265616479206d696e74656400000000600082015250565b60006139de601c83612282565b91506139e9826139a8565b602082019050919050565b60006020820190508181036000830152613a0d816139d1565b905091905056fea264697066735822122041eddd0bdc7b53a2474b8088e8ec59c85dd7dbecacef36b0e524e313b880565b64736f6c63430008130033",
    "linkReferences": {},
    "deployedLinkReferences": {}
}